:020000043400C6
:10040000000020340D590034E53F0034ED3F003446
:10041000F53F0034FD3F0034054000340D4000340A
:1004200000000000000000000000000069590034D6
:10043000154000340000000045080034F107003486
:1004400069590034000000006959003469590034CA
:1004500069590034695900346959003469590034C4
:1004600069590034000000006959003469590034AA
:10047000695900346959003469590034000000009A
:10048000695900340000000069590034695900348A
:100490006959003469590034695900346959003484
:1004A0006959003469590034695900346959003474
:1004B0006959003469590034695900346959003464
:1004C0006959003469590034695900346959003454
:1004D0000000000000000000695900346959003430
:1004E0006959003400000000000000000000000016
:1004F0000000000000000000695900346959003410
:100500002540003400000000000000000000000052
:100510006959003465A602346959003469590034B8
:1005200069590034695900346959003469590034F3
:1005300069590034695900346959003469590034E3
:1005400069590034695900346959003469590034D3
:1005500069590034695900346959003469590034C3
:1005600069590034695900346959003469590034B3
:1005700069590034695900346959003469590034A3
:1005800069590034695900346959003439400034DC
:100590004D400034695900346959003469590034B8
:1005A0006959003469590034695900346959003473
:1005B0006959003469590034695900346959003463
:1005C0006959003469590034695900346959003453
:1005D0006959003469590034695900346959003443
:1005E0006959003469590034695900346959003433
:1005F0006959003469590034695900346959003423
:100600006959003469590034695900346959003412
:100610006959003469590034695900346959003402
:100620006959003461400034695900346959003413
:1006300069590034695900346959003469590034E2
:1006400069590034695900346959003469590034D2
:1006500069590034695900346959003469590034C2
:1006600069590034695900346959003469590034B2
:1006700069590034695900346959003469590034A2
:100680006959003469590034695900346959003492
:100690006959003469590034695900346959003482
:1006A0006959003469590034695900346959003472
:1006B000695900346959003469590034754000346F
:1006C0006959003469590034695900346959003452
:1006D0006959003469590034695900346959003442
:1006E0006959003469590034695900346959003432
:1006F0006959003469590034695900346959003422
:100700006959003469590034695900346959003411
:100710006959003469590034695900346959003401
:1007200069590034695900346959003469590034F1
:1007300069590034695900346959003469590034E1
:0C074000000000006959003469590034C1
:1007500010B5054C237833B9044B13B10448AFF3FB
:1007600000800123237010BDC0450A340000000042
:1007700014D1073408B5034B1BB103490348AFF349
:10078000008008BD00000000C4450A3414D10734BD
:1007900072B64FF0E0201B49C0F8081D1A480168E6
:1007A00041F00101016019481649096801601848C3
:1007B00000684FF47A71B0FBF1F0A0F101014FF045
:1007C000E02041614FF0070101614FF00001C0F8E6
:1007D000181D4FF07F41C0F81C1D0E49C0F8201DA8
:1007E00062B67047FFF7FEBF01B5BDE80140704734
:1007F00001B500F097F8BDE801407047FFF7FEBF74
:10080000FFF7FEBF00040034001000E060810B34ED
:1008100084430A340000FF404FF000002D4A10606E
:10082000EFF3148020F0040080F3148862B64FF0D8
:1008300080504FF0E021C1F8040DBFF34F8FBFF39C
:100840006F8FFEE72448254A4FF00003016891B1FD
:100850000360EFF3098C2CE9F00F1EF0100F01D1AB
:100860002CED108A1E4C4CF804EDC1F808C0256828
:100870000DB18D61236072B61168D1B1016062B6AD
:100880004F68174C8D6907F101074F602560D1F85B
:100890000CC08CF30B88D1F808C05CF804EB1EF098
:1008A000100F01D1BCEC108ABCE8F00F8CF3098862
:1008B000704772B61168016009B962B6F9E74FF086
:1008C00000674FF0E028C8F8047D62B6D8E700BFA3
:1008D00070470000FC810B3464810B3468810B3459
:1008E00068870B34026922F00702A2F144026FF01C
:1008F000020313604FF0000353609360D3601361F1
:1009000053619361D361136253629362D362136341
:1009100053634FF0FF339363D1634FF080731364DD
:10092000826070472249086800F101000860214B8D
:100930001A683AB1A2F101021A601AB91E4B4FF0BF
:10094000010018601D490868026822B11C4B4FF075
:1009500001021A6008E000F104001A4B1A68904284
:1009600001D1194B18680860134B1A6812B9144961
:100970000868C8B101B51249086808B12BF0FEFD3E
:100980000D4B1A6872B12BF0E9FC1048016849B9A7
:100990000F4801680F4A13680F484FF08052994280
:1009A00000D00260BDE80140BFF34F8F70470000E8
:1009B00008820B3468870B340C820B3498820B341A
:1009C0009C820B3494820B3490820B34FC810B3468
:1009D00064810B3468810B3404ED00E010F8012BC6
:1009E00011F8013B012A28BF9A42F7D0D01A70476C
:1009F000034613F8012B002AFBD1181A013870475F
:100A000053B94AB9002908BF00281CBF4FF0FF3175
:100A10004FF0FF3000F0B0B9ADF1080C6DE904CE35
:100A200000F006F8DDF804E0DDE9022304B07047C9
:100A30002DE9F04F099D884604468E46002B4AD189
:100A40008A4217465FD9B2FA82F64EB1C6F1200348
:100A500001FA06FEB740B44020FA03F343EA0E0E53
:100A60004FEA17481FFA87FC230CBEFBF8F108FB7E
:100A700011EE01FB0CF243EA0E439A4207D9FB1830
:100A800001F1FF3002D29A4200F2548101469B1AD2
:100A9000A2B2B3FBF8F008FB103300FB0CFC42EAF7
:100AA000034294450BD9BA1800F1FF332CBF01243F
:100AB0000024944502D9002C00F03F81184640EAFA
:100AC0000140A2EB0C0200211DB1F2400023C5E958
:100AD0000023BDE8F08F8B4205D90DB1C5E90001B7
:100AE00000210846F5E7B3FA83F100294ED14345CA
:100AF000C0F01281824240F20F810846002DE8D0FA
:100B0000C5E9004EE5E7002A00F0AC80B2FA82F6B3
:100B1000002E40F0BB808B1A4FEA124EBCB201216E
:100B2000020C80B2B3FBFEFC0EFB1C3342EA034313
:100B300004FB0CF29A420ED9FB180CF1FF382CBFC3
:100B40004FF001094FF000099A4203D9B9F1000FA3
:100B500000F0EC80C4469B1AB3FBFEF80EFB183382
:100B600004FB08F440EA034294420BD9BA1808F196
:100B7000FF332CBF01200020944202D9002800F04E
:100B8000D1809846121B48EA0C409DE7C1F120062F
:100B90008B4008FA01F400FA01F922FA06F728FA64
:100BA00006F88A401F4320FA06F3380C23431FFA45
:100BB00087FC1C0CB8FBF0FE00FB1E8844EA0844CE
:100BC0000EFB0CF8A0450ED93C190EF1FF3A2CBFD4
:100BD0004FF0010B4FF0000BA04503D9BBF1000F04
:100BE00000F0B880D646A4EB08041FFA83F8B4FBE3
:100BF000F0F300FB134403FB0CFC48EA0444A44557
:100C00000ED93C1903F1FF302CBF4FF001084FF013
:100C10000008A44503D9B8F1000F00F09F800346F7
:100C200043EA0E40A4EB0C04A0FB02EC64457346BF
:100C3000E04602D307D1F14505D2BEEB02036CEBCF
:100C4000070C0138E0465DB1B9EB030264EB080420
:100C500004FA06F622FA01F3CC401E43C5E900640B
:100C6000002136E7B1FBF2FC010C144680B2964637
:100C700041EA08412026904640EA01431046B1FB74
:100C8000F2F1A3EB080341EA0C414BE7B740C6F190
:100C9000200301FA06F221FA03F84FEA174E20FA70
:100CA00003F3BCB2B0401343020C190C80B2B8FB82
:100CB000FEF90EFB198841EA084109FB04F8884552
:100CC00051D9791809F1FF3C2CBF4FF0010A4FF0C0
:100CD000000A884502D9BAF1000F31D0A1EB080112
:100CE000B1FBFEF909FB04F80EFB19119BB243EAB4
:100CF0000143434535D2FB1809F1FF312CBF4FF0BA
:100D0000010A4FF0000A4345BBD2BAF1000FB8D137
:100D1000A9F102013B44B4E7841A68EB0302012005
:100D20009646EBE63A44A8F102082BE7ACF1020C38
:100D30003B4410E702393B44A9E63A440238BEE698
:100D4000A7EB0808A9F1020C4144B1FBFEF909FB2D
:100D500004F8C9E7AEF1020E3C4444E7023B3C44D0
:100D60005EE749468DE7A1EB0801CC46B1FBFEF9F1
:100D700009FB04F8B8E700BF704700BF80B586B034
:100D800002AF78600023FB60342300934FF480634C
:100D9000144A154915482BF09BFE0346002B0AD137
:100DA000124BBB60B86800F035F8F860FB68002BA8
:100DB00001D000BFFDE7342300934FF480630C4A59
:100DC0000C490D482BF084FE0346002B05D10A4B3D
:100DD000BB60B86803F018FCF86000BF1037BD4670
:100DE00080BD00BFDC450A3418D20734DC490A3420
:100DF000104A0A342CD20734104E0A3480B500AFA2
:100E000062F0C0F90346184631F015F8034618465B
:100E100080BD000080B58CB008AF78600023FB6017
:100E200002F0ECF9F860FB68002B01D0FB68AFE042
:100E300034230022584959482BF0EAFEF860FB6839
:100E4000002B01D0FB68A3E040F6B83202215448E1
:100E500003F050F9B0230693012305930023049374
:100E60000D2303930D2302934FF4805301934D4BB5
:100E7000009300234C4A4D494D482BF0FBFFF8608E
:100E8000FB68002B01D0FB6882E0B02306930123AE
:100E90000593002304930A2303930A2302934FF438
:100EA00000530193434B00930023434A4349444872
:100EB0002BF0E0FFF860FB68002B01D0FB6867E0D7
:100EC000B023069301230593002304930F23039378
:100ED0000F2302934FF4805301933A4B0093002366
:100EE000394A3A493A482BF0C5FFF860FB68002BB5
:100EF00001D0FB684CE0B023069301230593002347
:100F0000049310230393102302934FF4805301930F
:100F1000304B00930023304A304931482BF0AAFF70
:100F2000F860FB68002B01D0FB6831E0B02306932A
:100F300001230593002304931223039312230293A6
:100F40004FF400630193274B00930023264A27495F
:100F500027482BF08FFFF860FB68002B01D0FB685F
:100F600016E0B02306930123059300230493132373
:100F70000393132302934FF4006301931D4B0093DB
:100F800000231D4A1D491E482BF074FFF860FB68C2
:100F900018461037BD4680BD48D2073464520A3423
:100FA00070500B3498520A34991C00345CD20734C8
:100FB000444E0A3498620A34991E00346CD20734C5
:100FC000F44E0A3498820A34F926003478D2073471
:100FD000A44F0A3498920A343D2600348CD2073448
:100FE00054500A3498A20A34211D0034A0D2073488
:100FF00004510A3498AA0A34F11D0034B8D20734D7
:10100000B4510A3480B500AF29F0E4FE00BF80BDC2
:1010100080B582B000AF78607B68002B11D00B4B9D
:101020001A687B681343094A13607B6803F0020364
:10103000002B06D02BF020FA034603F57A63044A0E
:10104000136000BF0837BD4680BD00BFA0B20A34A0
:10105000A4B20A3480B483B000AF78607B68002B00
:101060000ED07B68DA43094B1B681340074A1360B4
:101070007B6803F00203002B02D0054B00221A60AC
:1010800000BF0C37BD465DF8047B7047A0B20A3440
:10109000A4B20A3480B588B000AF87ED050A0346D4
:1010A000C7ED030A87ED021A79607B827B68002B0B
:1010B00002D14FF0FF3314E07B8A796897ED021A72
:1010C000D7ED030A184697ED050A7CF02FF8034682
:1010D000FB7797F91F30002B02D04FF0FF3300E071
:1010E000002318462037BD4680BD80B485B000AFD0
:1010F0000346FB80FB88642202FB03F30833002BCA
:1011000000DA0F331B11FB60FB68A3F5D543333BBB
:10111000FB60FB6818461437BD465DF8047B7047DA
:1011200080B584B000AF0346FB80FB881846FFF70C
:10113000DCFFF860FB6807EE903AB8EEE77ADFED87
:10114000126AC7EE267AC7ED027AD7ED027A07F166
:1011500008031946B0EE671AF3EE090A4FF480400F
:101160009FED0A0AFFF796FF0346002B07D1D7ED44
:10117000027AB0EE670A00F02BF8034600E0FB6845
:1011800018461037BD4680BD0000C8423333733F58
:1011900080B483B000AF78600B46FB70FB78002B07
:1011A00001D07B680BE07A681346DB001344074AE2
:1011B00082FB03125210DB17D31A03F5486318465B
:1011C0000C37BD465DF8047B704700BF67666666F6
:1011D00080B485B000AF87ED010AD7ED017A9FEDAD
:1011E000157A67EE877AC7ED037AD7ED037AF5EEC5
:1011F000C07AF1EE10FA08DBD7ED037AB6EE007A8A
:1012000077EE877AC7ED037A07E0D7ED037AB6EE7B
:10121000007A77EEC77AC7ED037AD7ED037AFDEE51
:10122000E77A17EE903A18461437BD465DF8047B0E
:10123000704700BF0000C84280B485B000AF0346CD
:101240000A46FB801346BB80FB885B089BB20133D8
:101250009BB23B81BB885B089BB201339BB27B8115
:10126000BB68FB6000233A7B62F307037A7B62F37F
:101270000F23BA7B62F31743FA7B62F31F631846AE
:101280001437BD465DF8047B704790B486B000AF5C
:101290000446084611461A462346FB800346BB8097
:1012A0000B467B8013463B80FB88DB0A9BB203F036
:1012B0001F02BB88DB0A9BB203F01F031A447B8822
:1012C000DB0A9BB203F01F031A443B88DB0A9BB284
:1012D00003F01F03134402339B087B61FB885B0907
:1012E0009BB203F03F02BB885B099BB203F03F0354
:1012F0001A447B885B099BB203F03F031A443B8886
:101300005B099BB203F03F03134402339B083B612C
:10131000FB8803F01F02BB8803F01F031A447B887D
:1013200003F01F031A443B8803F01F0313440233E6
:101330009B08FB607B699BB2DB029AB23B699BB264
:101340005B019BB203F4FC639BB213439AB2FB684C
:101350009BB203F01F039BB213439BB2184618378E
:10136000BD4690BC704780B584B000AF78603960EE
:101370007B68002B0FD03B68002B0CD000217868D5
:101380003FF019FAF860FB68002B05D03968F8685F
:1013900072F022F800E000BF1037BD4680BD0000AB
:1013A00080B58EB004AFF860B9607A603B60FB68CE
:1013B000002B43D0BB68002B40D07B68002B3DD076
:1013C00097F8303019463868FFF7E2FE786297F8F0
:1013D0003030002B01D0432300E0462387F8233030
:1013E0007B6A002BB8BF5B42FB61FB69154A82FB3D
:1013F00003125211DB17D31ABB61FB69114A82FB3E
:1014000003125111DA178A1A642101FB02F29B1AA6
:101410007B617B6A002B01DA0B4B00E00B4B97F8EA
:10142000232003927A690292BA69019200937B6841
:10143000074AB968F8687AF077FB00E000BF283700
:10144000BD4680BD1F85EB51C8D20734CCD20734CE
:10145000D0D2073480B586B002AF786039607B683F
:10146000002B2CD03B68002B29D0174B1B78FB722C
:10147000164B1B78BB72164B1B787B72FB7A002BCA
:1014800005D1144A396878687AF04EFB18E07B7A07
:10149000002B02D0012B03D005E00F4BFB6005E0D1
:1014A0000E4BFB6002E00E4BFB6000BFBB7A00936B
:1014B000FB680C4A396878687AF036FB00E000BFB8
:1014C0001037BD4680BD00BFB6B20A34B7B20A3489
:1014D00028430A34E4D20734F0D20734F4D2073474
:1014E000F8D20734FCD20734F0B5BFB010AF786142
:1014F0000023A7F8AC300023A7F8AA300023A7F8F0
:10150000A8300023A7F8A630002387F89F307B6916
:10151000002B00F0748108F07BFCC7F89800D7F826
:101520009830002B00F06D8108F07CFC0346A7F892
:10153000963008F07FFC0346A7F8943008F0CEFC04
:10154000034687F8933008F0D5FC034687F89230BD
:101550002EF000F9034687F89130B7F89630B7F8C7
:10156000942002FB03F3C7F88C304FF6FF73A7F803
:10157000B6300023A7F8AE30A44B1B7887F88B3029
:1015800097F88B30002B34D0A14B1B889BB2B7F857
:1015900096209A422DD99F4B1B889BB2B7F8942076
:1015A0009A4226D99C4B1B889BB2B7F896209A4248
:1015B0001FD99A4B1B889BB2B7F894209A4218D92E
:1015C000974B1B88A7F8AE30964B1B88A7F8B63010
:1015D0008F4B1B88A7F8A8308E4B1B88A7F8A63026
:1015E0008D4B1B88A7F8AC308C4B1B88A7F8AA3012
:1015F00051E00023C7F8B03047E0D7F8B0305B00C7
:10160000D7F8982013441B88A7F88830B7F88820AB
:10161000B7F8B6309A4216D2B7F88830A7F8B63085
:10162000B7F89620D7F8B030B3FBF2F101FB02F225
:101630009B1AA7F8AC30B7F89630D7F8B020B2FBB9
:10164000F3F3A7F8AA30B7F88820B7F8AE309A427B
:1016500016D9B7F88830A7F8AE30B7F89620D7F883
:10166000B030B3FBF2F101FB02F29B1AA7F8A830ED
:10167000B7F89630D7F8B020B2FBF3F3A7F8A6304E
:10168000D7F8B0300133C7F8B030D7F8B020D7F86A
:101690008C309A42B1D3B7F894305B089BB21A46AB
:1016A000B7F8963002FB03F3B7F89620520892B2CF
:1016B00013445B00D7F8982013441B88A7F88630A2
:1016C00008F09AFBC7F8A000D7F8A030002B06D18D
:1016D000B7F886301846FFF723FDC7F8A0007B69EE
:1016E000D3F8C4607B69D3F8D4303B617B69D3F80D
:1016F000D820FA607B69D3F8DC00B8607B69D3F846
:10170000E4407B69D3F8E85008F064FB03467B6053
:1017100008F069FB03461A46B7F8A6300F93B7F8EE
:10172000A8300E93B7F8AA300D93B7F8AC300C93ED
:10173000D7F8A0300B93B7F8AE300A93B7F8B630AD
:10174000099397F89130089397F89230079397F898
:1017500093300693B7F894300593B7F89630049316
:1017600003927968029101950094BB68FA6839691F
:10177000304600F075F87B69D3F810017B69D3F827
:101780001C417B69D3F820517B69D3F824617B69C4
:10179000D3F82C317A69D2F83021B7F8A6100F911E
:1017A000B7F8A8100E91B7F8AA100D91B7F8AC10C1
:1017B0000C91D7F8A0100B91B7F8AE100A91B7F8BA
:1017C000B610099197F89110089197F89210079127
:1017D00097F893100691B7F894100591B7F8961002
:1017E00004914FF4F07103914FF420710291019232
:1017F000009333462A46214600F032F802E000BF4B
:1018000000E000BFBC37BD46F0BD00BFA9B20A343E
:10181000B2B20A34B4B20A34AEB20A34B0B20A3444
:10182000ACB20A34AAB20A3490B583B000AF08F063
:10183000C7FA78607B68002B0CD008F0CBFA03461F
:101840001C4608F0D0FA034622460449786800F0A6
:1018500037F900E000BF0C37BD4690BD0000009096
:1018600080B598B002AFF860B9607A603B60FB6801
:10187000002B00F01881BB68002B00F014817B68FE
:10188000002B00F010813B68002B00F00C8107F169
:10189000100097F880300093D7F88C30854A2021CB
:1018A000FFF77EFD07F110031946B868FFF75BFDEF
:1018B000B7F888301846FFF733FC024607F11000EE
:1018C00097F88030009313467B4A2021FFF768FD8C
:1018D00007F1100319467868FFF745FDB7F8843023
:1018E0001846FFF71DFC024607F1100097F88030FC
:1018F00000931346714A2021FFF752FD07F11003B0
:1019000019463868FFF72FFD3B6E002B00F0CD80A5
:101910007B6E002B00F0C980F86838F056FF034654
:101920007B64F86838F08EFF03463B64B7F8980094
:10193000B7F89C1007F19C0307F1980208F0E6FA4B
:10194000B7F89000B7F8941007F1940307F19002EC
:1019500008F0DCFAB7F89830FB63B7F89C30BB634B
:10196000B7F890307B63B7F894303B63B7F86820E2
:10197000B7F87030B2FBF3F39BB21A46FB6B03FB74
:1019800002F27B6C134404337B65B7F86C20B7F824
:101990007430B2FBF3F39BB21A46BB6B03FB02F24B
:1019A0003B6C13440C3B3B65B7F86820B7F87030CC
:1019B000B2FBF3F39BB21A467B6B03FB02F27B6C28
:1019C00013440433FB64B7F86C20B7F87430B2FBEF
:1019D000F3F39BB21A463B6B03FB02F23B6C1344DE
:1019E0000C3BBB647A6D7B6C9A4201DA7B6C7B6545
:1019F0003A6D3B6C9A4201DA3B6C3B65FA6C7B6C4E
:101A00009A4201DA7B6CFB64BA6C3B6C9A4201DA55
:101A10003B6CBB64B7F868207B6C1344113B7A6D58
:101A20009A4205DBB7F868207B6C1344123B7B6558
:101A3000B7F86C203B6C1344113B3A6D9A4205DBBE
:101A4000B7F86C203B6C1344123B3B65B7F8682039
:101A50007B6C1344113BFA6C9A4205DBB7F86820A3
:101A60007B6C1344123BFB64B7F86C203B6C134453
:101A7000113BBA6C9A4205DBB7F86C203B6C1344FF
:101A8000123BBB647B6D1BB23A6D12B21946386EC5
:101A900037F0BBFFFB6C1BB2BA6C12B21946786E02
:101AA00037F0B3FF02E000BF00E000BF5837BD468B
:101AB00080BD00BF04D307340CD3073414D30734DC
:101AC00090B58FB000AFF860B96011461A460B466A
:101AD000FB801346BB80FB68002B00F09080BB6846
:101AE000002B00F08C80FB88002B00F08880BB88E6
:101AF000002B00F08480FB885B00FB6200237B638B
:101B000078E07B6BFA6A02FB03F35B00BB62BA6AA4
:101B1000FB6A13447B62FA887B6B02FB03F33B6234
:101B20007B6B5A1CBB889A4202D27B6B013300E06C
:101B30007B6BFA8802FB03F3FB6100233B6352E0FB
:101B40003B6B5A1CFB889A4202D23B6B013300E08C
:101B50003B6BBB613A6A3B6B13445B00FA6813440E
:101B600018883A6ABB6913445B00FA681344198801
:101B7000FA693B6B13445B00FA6813441C88FA69EA
:101B8000BB6913445B00FA6813441B882246FFF7C5
:101B90007CFB0346FB823B6B5B003B61BA6A3B69A3
:101BA00013445B00BA681344FA8A1A80BA6A3B6924
:101BB000134401335B00BA681344FA8A1A807A6AC4
:101BC0003B6913445B00BA681344FA8A1A807A6A44
:101BD0003B69134401335B00BA681344FA8A1A80E4
:101BE0003B6B01333B63FB883A6B9A42A8D37B6B18
:101BF00001337B63BB887A6B9A4282D300E000BFDB
:101C00003C37BD4690BD000080B489B000AF78601D
:101C100039607B68002B35D03B68002B32D07B6865
:101C200023F01F03FB617A683B6813441F3323F0E2
:101C30001F03BB61FB69B969FA698A1A7B613A6162
:101C40003B69002B20DD7B6903F01F023B691344D5
:101C5000FB607B69BB60BFF34F8F00BF0D4ABB6861
:101C6000C2F86832BB682033BB60FB68203BFB6076
:101C7000FB68002BF2DCBFF34F8F00BFBFF36F8F09
:101C800000BF01E000BF00E000BF2437BD465DF8A3
:101C9000047B704700ED00E080B588B000AF78604D
:101CA0000023FB610023BB6106E01A4B00221A707F
:101CB0004FF47A702AF080F807F0EAFF0346002B11
:101CC000F3D14FF00003FB6007F10C031946B3EEAC
:101CD0000E1AF3EE090A4FF480409FED0F0AFFF74A
:101CE000D9F9FB680D4A13600A4B01221A7008F0FB
:101CF00031F808F0A7F878617B69002B06D07A6983
:101D0000FB699A4202D008F083F8386101202AF07A
:101D100053F8ECE7A8B20A343333733F98B20A346D
:101D200090B589B000AF7860294B1B78DBB2002BEF
:101D30004AD007F11403184608F051FA0346002B65
:101D400024D1BB8A7B82FB8A3B8207F112031946AE
:101D5000B86908F066FA07F110031946F86908F047
:101D600060FA7A8A1B4B1A803A8A1B4B1A803A8B8C
:101D70001A4B1A807A8B1A4B1A80BA8B194B1A801D
:101D8000FA8B194B1A80194B01221A7008F04AF885
:101D900003461C4608F04EF8034619462046FFF756
:101DA0004BFA0346BB6007F10E031946B86808F00A
:101DB00038FA0346002B07D1FB891846FFF7B0F924
:101DC0000346184607F08EFD502029F0F5FFABE7DB
:101DD000A8B20A34ACB20A34AAB20A34B2B20A3493
:101DE000B4B20A34AEB20A34B0B20A34A9B20A3478
:101DF00080B584B000AF78600023FB731C22002103
:101E000020487AF017F80123BB7301F015FA034656
:101E1000002B1CD1FB7B002B12D1642355221A49C5
:101E2000184803F0D5FD0346BB73BB7B002B0CD1D8
:101E30000123FB73134803F007FE0346BB7304E062
:101E4000104803F001FE0346BB7301F00DFABB7BA3
:101E5000002B0BD10B4B1A7E0C4B1A70094B5A7E80
:101E60000B4B1A700B4B01221A7005E0FB7B002B09
:101E700002D1084B00221A704FF47A7029F09CFFAF
:101E8000C1E700BFB8B20A3410520B34B7B20A34FB
:101E900028430A34B6B20A3480B592B002AF7860F3
:101EA0000023FB630023BB6304F02EF834F06CFEC8
:101EB0002FF02EFE2FF0C0FE70482DF07DFC6F48F5
:101EC0002DF020FC6D482CF00BFAFEF797FF03462F
:101ED000184639F0C8FA00203EF08CFE07F07AFF71
:101EE0000346FB8607F07FFF0346BB86644A1378F0
:101EF000042161F304031370614A137823F0E003B3
:101F00001370FB8EC3F30A0399B25D4A136861F341
:101F100094231360BB8EC3F30A0399B2584A5388C3
:101F200061F34F135380FB8EBA8E02FB03F35B0009
:101F3000534A536007F044FF0346514A93604F4BA6
:101F4000D3F8C4304E49184670F05CF84D4A137807
:101F5000042161F3040313704A4A137823F0E00369
:101F60001370484A13684FF4207161F3942313608F
:101F7000444A53884FF4F07161F34F135380414B3F
:101F80004FF416225A603F4B3F4A9A603B4BD3F8BE
:101F900010313C49184670F035F807F053FF3863AC
:101FA0003B6B002B18D03A6BFB6B9A4214D03B6B07
:101FB000FB63324BD3F8C430184639F054FA2DF095
:101FC000BDFB0346002B07D0FFF72EFC2B4BD3F8AD
:101FD0001031184639F047FA08F008FD0246BB6B8D
:101FE000D31A772B05D92548FFF77EFA08F0FEFCB7
:101FF000B86308F0FBFC0346244AA2FB03239B09B9
:10200000FB62FB6A224AA2FB03235A09204BA3FB73
:10201000021359090B461B015B1A9B00D11AF86A7F
:102020001B4BA3FB00235A0913461B019B1A9B0061
:10203000C21A07F11C0000920B46164A102179F0D3
:1020400073FD0E4B1B6A07F11C0211461846FFF781
:102050008AF907F10C0310211846FFF7FBF9074B2B
:102060005B6A07F10C0211461846FFF77CF966F02F
:102070006BFB052029F0A0FE8FE700BF2C530B342B
:1020800058500B3464500B3400000090D34D621054
:10209000898888881CD3073480B400AF054B1B683F
:1020A000002B01D0012300E000231846BD465DF857
:1020B000047B7047A0B20A3480B582B000AF78606C
:1020C0007868FEF7A5FF00BF0837BD4680BD80B524
:1020D00082B000AF78607868FEF7BCFF00BF0837B9
:1020E000BD4680BD80B500AF02E0012029F064FE4E
:1020F000034B1B78DBB2002BF7D100BF00BF80BDC4
:102100009CB20A3480B584B000AF78607B68002B45
:1021100001D1182320E07868FEF76AFCF860FB68BC
:10212000002B01D1002317E0FFF7DCFF0C4B01224D
:102130001A70FB689AB241F28833796809481AF03C
:10214000C1F90346FB72064B00221A70FB7A002B82
:1021500001D1002300E0902318461037BD4680BD12
:102160009CB20A343C550B340FB480B582B000AF3A
:102170003B69002B01D1182317E007F114033B60E2
:102180003B683A694FF440710B4879F097FD7860ED
:102190007B68002B03DB7B68B3F5407F01D32123F1
:1021A00003E00548FFF7AEFF034618460837BD4673
:1021B000BDE8804004B0704754490B3480B489B006
:1021C00000AFF860B9607A603B600023FB610023D8
:1021D000BB61FB68002B02D07B68002B73D100230E
:1021E0007BE0BA68FB69D31A7B61FB695A1CFA6110
:1021F000FA6813441B78FB747B69012B06D9FB69D1
:102200005A1CFA61FA6813441B7800E00023BB747F
:102210007B69022B06D9FB695A1CFA61FA681344E0
:102220001B7800E000237B74BB6904333A689A4250
:1022300001D8002351E0FB7C9B08DBB203F03F0296
:10224000BB69591CB96179680B4427498A5C1A70CB
:10225000FB7C1B0103F03002BB7C1B09DBB203F0EB
:102260000F031A43BB69591CB96179680B441E49B5
:102270008A5C1A707B69012B0CD9BB7C9B0003F034
:102280003C027B7C9B09DBB203F003031343164A39
:10229000D15C00E03D21BB695A1CBA617A681344E5
:1022A0000A461A707B69022B05D97B7C03F03F0339
:1022B0000D4AD15C00E03D21BB695A1CBA617A68C5
:1022C00013440A461A70FA69BB689A4289D37A683D
:1022D000BB69134400221A70BB6918462437BD46F7
:1022E0005DF8047B704700BFD8F0073480B584B038
:1022F00000AF00237B603B1D10222021194802F013
:10230000ADFBB860BB68002B01D0BB6826E07B68E2
:1023100019461548FFF728FFB860BB68002B01D0AD
:10232000BB681BE00023FB6010E0FB681B010D4A4B
:10233000134419460D48FFF717FFB860BB68002B20
:1023400001D0BB680AE0FB680133FB607B68FA6878
:102350009A42EAD30648FFF7D5FE034618461037DF
:10236000BD4680BD584E0B3428D3073434D30734D0
:1023700040D3073480B58CB002AF786000237B81F6
:1023800000233B8100237B6200233B627B68002BA0
:1023900001D118235EE007F10A0207F10803009358
:1023A00013464FF496222D49786802F023FCB86159
:1023B000BB69002B01D0BB694CE07B893A8902FBE9
:1023C00003F35B007B61254B3B617B891A463B89AC
:1023D00019467B6900930B4679682148FFF7C4FED4
:1023E000B861BB69002B2DD0BB6933E07A697B6A89
:1023F000D31AFB61FB69B3F5C07F02D94FF4C073F8
:10240000FB613A697B6AD0184FF40173154AF96988
:10241000FFF7D4FEF860FB68002B01D1212319E0FF
:10242000104A396A1048FFF79FFEB861BB69002B5C
:1024300001D0BB690EE07A6AFB6913447B623B6A98
:1024400001333B627A6A7B699A42CFD30748FFF730
:1024500059FE034618462837BD4680BD00600990E6
:102460004CD30734544C0B3468D3073478D3073437
:1024700080B582B000AF00233B603B461022202194
:102480000D4802F0EBFA78607B68002B01D07B6886
:102490000DE03B68002B01D10F2308E03B68013BB6
:1024A0001B01054A13441846FFF764FF034618460C
:1024B0000837BD4680BD00BF584E0B3480B586B08E
:1024C00000AF786000237B617B683B610023FB6089
:1024D0007B68002B00F09A807B681B78002B00F053
:1024E00095804C493869FEF779FA0346002B22D1D2
:1024F0000220FFF7E1FD02F011F978617B69002B02
:102500000DD1FFF7C9FD0346002B01D0424B00E07F
:10251000424BFB60F9684248FFF726FE77E0022055
:10252000FFF7D5FD786902F041FD034619463D48A5
:10253000FFF71AFE6BE03C493869FEF74FFA034695
:10254000002B10D10220FFF7C2FDFFF7A5FD0346C7
:10255000002B01D0304B00E0304BFB60F968304875
:10256000FFF702FE53E031493869FEF737FA0346B8
:10257000002B0ED02E493869FEF730FA0346002BA7
:1025800007D009222B49386979F05CFC0346002BFF
:1025900009D10220FFF790FD29F06EFF034603F5F5
:1025A0007A63254A136021493869FEF717FA034612
:1025B000002B03D1FFF79AFE78611BE01C493869B4
:1025C000FEF70CFA0346002B03D1FFF751FF7861A9
:1025D00010E009221749386979F034FC0346002BD2
:1025E00006D13B6909331846FFF7C4FE786101E064
:1025F0000D237B617B69002B09D0786902F0D6FC42
:10260000034619460748FFF7AFFD00E000BF183743
:10261000BD4680BD84D3073490D307349CD30734A0
:10262000A8D30734B0D30734B8D30734C4D307349E
:10263000D0D30734E0D30734A4B20A3480B586B0CF
:1026400000AF786000237B610023BB73254B1B68C0
:1026500003F00203002B0FD029F00EFF3861224B4C
:102660001B683A69D31A002B06DB1F4B1B68002B33
:1026700002D00220FFF72BFD07F10E0114230122E7
:102680001A4819F0B8FF0346FB73FB7B002B03D0FD
:10269000012029F091FB24E0BB7B0D2B20D0BB7BDC
:1026A0000A2B0DD1124A7B69134400221A707B69F0
:1026B000002B02D00E48FFF701FF00237B6110E0E2
:1026C0007B695E2B06D87B695A1C7A61B97B084A04
:1026D000D154B9E700237B610648FFF713FDB3E748
:1026E00000BFB1E7A0B20A34A4B20A343C550B349F
:1026F000F4480B34ECD3073480B58AB000AF78606F
:1027000000237B624E4B1B78DBB2002B03D10A20E7
:1027100029F052FB92E0FFF7BFFC0346002B03D0E9
:102720000A2029F049FB89E0464B1B78DBB2002BDD
:1027300003D0012029F040FB80E007F083FB3862E2
:102740003B6A002B03D03A6A7B6A9A4204D140F27A
:102750004D1029F031FB71E007F05AFBF861FB697D
:10276000002B04D140F24D1029F026FB66E0FB69F6
:1027700003F5974320331B887B827821A020FEF746
:102780005BFD0346BB6007F112031946B86807F00A
:1027900048FD7B8A1846FEF7A8FCB861BB6907EEC6
:1027A000903AB8EEE77ADFED286AC7EE267AC7EDF1
:1027B000037AD7ED037A07F10C031946B0EE671AD6
:1027C000F3EE090A4FF480409FED200AFEF762FC09
:1027D0000346002B0AD1D7ED037AB0EE670AFEF765
:1027E000F7FC0346184607F07DF802E0B86907F0E9
:1027F00079F83A6AF969164800F02EF878617B6931
:10280000002B04D140F24D1029F0D6FA16E0796978
:102810000F4800F0FCF87B699BB21A460C490D4842
:1028200019F0BAFF0346002B04D1064B01221A709F
:102830003B6A7B6240F24D1029F0BEFA62E700BFAE
:10284000A8B20A349CB20A340000C8423333733F42
:10285000E0B20A343C550B3480B596B000AFF86056
:10286000B9607A604FF6FF73A7F84E300023A7F8DF
:102870004C30FB68002B02D0BB68002B01D1002339
:10288000C1E0FB68FB63FB681433BB6307F026FB06
:10289000034687F8373007F02DFB034687F83630BC
:1028A0000023BB8600237B656FE07B6D3B630023C9
:1028B0003B6564E03B6DFB6200233B640023BB642B
:1028C00038E03A6BBB6C13447B6297F83630002BD0
:1028D00003D07B6AC3F1770300E07B6A3B623A6A0C
:1028E00013469B0013445B01FB6100237B641BE0E8
:1028F000FA6A7B6C1344BB6197F83730002B03D026
:10290000BB69C3F19F0300E0BB697B61FA697B6926
:1029100013445B00BA6813441B881A463B6C13448B
:102920003B647B6C01337B647B6C002BE0D0BB6C25
:102930000133BB64BB6C002BC3D03B6C7B857A6DD1
:1029400013469B0013445B011A463B6D13445B0026
:10295000BA6B13447A8D1A807A8DB7F84E309A424A
:1029600002D27B8DA7F84E307A8DB7F84C309A4260
:1029700002D97B8DA7F84C303B6D01333B653B6D35
:102980009F2B97D97B6D01337B657B6D772B8CD922
:10299000BB6B03F58043B3F8A03BBB86FB6B002207
:1029A00062F055021A70002242F055025A70FB6B19
:1029B000002242F001029A700022DA70FB6B7A6802
:1029C0005A60FB6B002262F05F021A7200225A7298
:1029D000FB6B002242F078029A720022DA72FB6BE3
:1029E00000221A73002262F069025A73FB6BBA8EDE
:1029F000DA81FB6BB7F84E201A82FB6BB7F84C20DC
:102A00005A8249F2146318465837BD4680BD80B5D6
:102A100082B000AF7860396039687868FFF7F4F801
:102A200000BF0837BD4680BD80B483B000AF78607A
:102A30007B68002B07D07B681B68064A934202D153
:102A4000054B00221A7000BF0C37BD465DF8047BB1
:102A5000704700BF001000529CB20A3480B483B0AB
:102A600000AF78607B68002B07D07B681B68064A44
:102A7000934202D1054B00221A7000BF0C37BD46AD
:102A80005DF8047B704700BF001000529CB20A340E
:102A900080B485B000AF7860074A7B68C2F85C3AC2
:102AA000054BD3F85C32FB60FB6800BF1437BD46B2
:102AB0005DF8047B704700BF0080025680B485B08B
:102AC00000AF7860074A7B68C2F87C3A054BD3F8C0
:102AD0007C32FB60FB6800BF1437BD465DF8047BA9
:102AE000704700BF0080025680B58CB000AF07F180
:102AF0000C0324220021184679F09CF93B46002261
:102B00001A605A609A601B4B1B4A1A60194808F0F9
:102B100080F80346002B01D001F0DAF80023BB61F6
:102B200000237B6180233B610023FB610023FB606A
:102B30000023BB620023FB6200233B6207F10C030E
:102B400019460C4808F093F800233B600A237B6089
:102B50000023BB603B461A460021064808F0FEF8F9
:102B60000346002B01D001F0B3F800BF3037BD465B
:102B700080BD00BFEC500B340020005880B5ECB095
:102B800000AF07F5D873A3F5D673186007F5CE73B9
:102B900000221A605A609A60DA601A6107F5D873E9
:102BA000A3F5D47318464FF4C8731A46002179F080
:102BB00041F907F5D873A3F5D6731B681B68504A13
:102BC000934240F0978007F5D873A3F5D4714FF086
:102BD00010024FF00003C1E9002307F5D873A3F5F5
:102BE000D4730022C3F8C82007F10803184611F077
:102BF000D5F80346002B01D001F06AF80420FFF756
:102C00005DFF1020FFF744FF8020FFF741FF082001
:102C1000FFF73EFF0220FFF73BFF40F22113C7F80A
:102C20009C310223C7F8A0310023C7F8A43109233F
:102C3000C7F8AC3107F5CE73194632480AF0E6FF03
:102C40004FF40073C7F89C310223C7F8A03100236A
:102C5000C7F8A4310923C7F8AC3107F5CE7319467C
:102C600029480AF0D3FF4023C7F89C310223C7F854
:102C7000A0310023C7F8A4310A23C7F8AC3107F507
:102C8000CE7319461F480AF0C1FFA123C7F89C3133
:102C90000223C7F8A0310023C7F8A4310923C7F8DD
:102CA000AC3107F5CE73194618480AF0AFFF4FF460
:102CB0006073C7F89C310223C7F8A0310023C7F81E
:102CC000A4310923C7F8AC3107F5CE731946104873
:102CD0000AF09CFF00220021302007F06FFF302017
:102CE00007F089FF00220121532007F067FF5320DE
:102CF00007F081FF00BF07F5D877BD4680BD00BF54
:102D00000020005800100256001C0256000C02560B
:102D10000004025680B485B000AF7860074A7B6833
:102D2000C2F8603A054BD3F86032FB60FB6800BF25
:102D30001437BD465DF8047B704700BF0080025623
:102D400080B500AF154B164A1A60144B4FF4803211
:102D50005A60124B02229A60104B0022DA600F4B2D
:102D600000225A640D4B02229A640C4B0022DA6452
:102D70000A4BFF221A65094809F016FF0346002B8B
:102D800001D000F0A5FF012104480AF083F80346B2
:102D9000002B01D000F09CFF00BF80BDF8500B3429
:102DA0000010025880B582B000AF78607B681B6865
:102DB000044A934202D10220FFF7ACFF00BF08375C
:102DC000BD4680BD0010025880B485B000AF786069
:102DD000074A7B68C2F8503A054BD3F85032FB6083
:102DE000FB6800BF1437BD465DF8047B704700BF29
:102DF0000080025680B500AF1020FFF7E5FF0022EB
:102E00000021542007F0DAFE542007F0F4FE00BF42
:102E100080BD000080B485B000AF7860074A7B6851
:102E2000C2F85C3A054BD3F85C32FB60FB6800BF2C
:102E30001437BD465DF8047B704700BF0080025622
:102E400080B586B000AF3B1D00221A605A609A60C0
:102E5000DA601A610420FFF7DDFF1020FFF7DAFFC8
:102E60000820FFF7D7FF8020FFF7D4FF0220FFF7ED
:102E7000D1FF4FF40040FFF7CDFF4FF48040FFF744
:102E8000C9FF2020FFF7C6FF0120FFF7C3FF402046
:102E9000FFF7C0FF01224FF4806134480BF0C0F906
:102EA0000022082132480BF0BBF901224FF4806167
:102EB00030480BF0B5F902237B600023BB6001238F
:102EC000FB603B1D19462C480AF0A0FE40237B60A6
:102ED0000023BB600123FB603B1D194627480AF015
:102EE00095FE4FF480637B600123BB600223FB608F
:102EF00000233B613B1D19461C480AF087FE4FF436
:102F000000537B600023BB600223FB603B1D19461E
:102F10001A480AF07BFE08237B600123BB60012373
:102F2000FB6000233B613B1D194611480AF06EFE11
:102F30004FF480637B600123BB600223FB600023AE
:102F40003B613B1D19460B480AF060FE4FF40063DD
:102F50007B600023BB600123FB603B1D19460548D5
:102F60000AF054FE00BF1837BD4680BD001002565F
:102F70000000025600180256000C025600080256C5
:102F800080B582B000AF3B4600221A605A60174BF2
:102F9000174A1A60154B4FF440029A63134B0022F4
:102FA000DA63124B00221A64104B4FF040425A640D
:102FB0000E4B81229A640D480AF0C0F80346002B9C
:102FC00001D000F085FE00233B6000237B603B4680
:102FD0001946064809F0F8F80346002B01D000F026
:102FE00077FE00BF0837BD4680BD00BF60510B347F
:102FF000D007025880B485B000AF7860074A7B687C
:10300000C2F85C3A054BD3F85C32FB60FB6800BF4A
:103010001437BD465DF8047B704700BF0080025640
:1030200080B485B000AF7860074A7B68C2F8743A14
:10303000054BD3F87432FB60FB6800BF1437BD4604
:103040005DF8047B704700BF0080025680B483B0F7
:1030500000AF7860064B03F580531A467B68C2F8D0
:10306000743200BF0C37BD465DF8047B704700BF6B
:103070000080025680B500AF1B4B1C4A1A601A4BE9
:103080001B4A5A60184B00229A60174B0122DA60E3
:10309000154B00221A61144B00225A61124B002278
:1030A0009A61114B0022DA610F4B00221A620E481E
:1030B0000BF015F90346002B01D000F009FE0021AA
:1030C00009480BF0CDFF0346002B01D000F000FEB5
:1030D000002105480CF00FF80346002B01D000F04A
:1030E000F7FD00BF80BD00BF10520B34001C00561E
:1030F000BC7D701080B5ECB000AF07F5D873A3F5B8
:10310000D673186007F5CE7300221A605A609A6071
:10311000DA601A6107F5D873A3F5D47318464FF433
:10312000C8731A46002178F085FE07F5D873A3F519
:10313000D6731B681B681F4A934236D107F5D873B4
:10314000A3F5D4714FF400424FF00003C1E900230E
:1031500007F5D873A3F5D473174AC3F8F42007F121
:103160000803184610F01AFE0346002B01D000F0A9
:10317000AFFD1020FFF73EFF4FF4C043C7F89C316E
:103180001223C7F8A0310023C7F8A4310023C7F8E1
:10319000A8310423C7F8AC3107F5CE7319460748A8
:1031A0000AF034FD8020FFF73BFF00BF07F5D8771A
:1031B000BD4680BD001C00560C0C010700100256D5
:1031C00080B582B000AF78607B681B68094A934283
:1031D0000CD18020FFF73AFF4FF4005106480AF067
:1031E000C7FE4FF4804104480AF0C2FE00BF083712
:1031F000BD4680BD001C00560010025680B500AFD1
:103200000A4B1B78DBB2002B0DD134230122084975
:10321000084829F0FDFC0346002B01D01C2303E0E5
:10322000024B01221A700023184680BD0C520B3449
:10323000F8D30734D8510B3480B582B000AFFFF714
:10324000DDFF78607B68002B01D07B6805E04FF0E4
:10325000FF31044829F07AFD034618460837BD4679
:1032600080BD00BFD8510B3480B500AF044B1B7834
:10327000DBB2002B02D0034829F0C2FD00BF80BDA5
:103280000C520B34D8510B3480B586B000AF3B469E
:1032900000221A605A609A60DA601A612C480BF0BA
:1032A000B9F81020FFF7A6FE4FF4C0433B6011238E
:1032B0007B600023BB600023FB603B46194625482A
:1032C0000AF0A4FC01224FF4C04122480AF0A8FFF2
:1032D000012007F097FB00237B6114E000224FF4EC
:1032E00000511C480AF09CFF012007F08BFB0122D3
:1032F0004FF4005117480AF093FF012007F082FBBA
:103300007B6901337B617B69082BE7D900224FF48D
:10331000804110480AF084FF012007F073FB01226E
:103320004FF400510B480AF07BFF012007F06AFBC5
:1033300001224FF4804107480AF072FF012007F094
:1033400061FBFFF797FE00BF1837BD4680BD00BF89
:1033500010520B340010025680B584B000AF87EDD8
:10336000020B87ED001B97ED001B97ED020B79F028
:103370003BFCB0EE407BB0EE470B1037BD4680BD46
:1033800080B582B000AF87ED000B97ED000B79F0B0
:103390005FFBB0EE407BB0EE470B0837BD4680BD0B
:1033A00080B485B000AF7860074A7B68C2F85C3AA9
:1033B000054BD3F85C32FB60FB6800BF1437BD4699
:1033C0005DF8047B704700BF0080025680B485B072
:1033D00000AF7860074A7B68C2F87C3A054BD3F8A7
:1033E0007C32FB60FB6800BF1437BD465DF8047B90
:1033F000704700BF0080025680B483B000AF786091
:10340000064B03F580531A467B68C2F87C3200BF36
:103410000C37BD465DF8047B704700BF0080025644
:1034200080B58EB000AF3B1D34220021184678F0E5
:1034300001FD3A4B3A4A1A60384B00225A60374B2A
:1034400000229A60354B0022DA60344B00221A6168
:10345000324B00225A61314B00229A612F4B2822B5
:10346000DA612E4B08221A622C4B4FF402725A6218
:103470002A4B4FF48C729A62284B40F20D22DA628A
:10348000264B4FF490721A63244B002283F83420A9
:10349000224B002283F83520204B002283F836206F
:1034A0001E480BF074FE0346002B01D000F010FC08
:1034B00000237B604FF4F073BB600023FB604FF48C
:1034C00088733B6104237B61FF23BB610023FB61A5
:1034D0004FF480633B6205237B620023BB624FF4A1
:1034E000F073FB624FF488733B63002387F834303A
:1034F000002387F83530002387F836303B1D002243
:10350000194606480BF047FF0346002B01D000F098
:10351000DFFB00BF3837BD4680BD00BF64520B34AF
:103520000010005880B5ECB000AF07F5D873A3F5D4
:10353000D673186007F5CE7300221A605A609A603D
:10354000DA601A6107F5D873A3F5D47318464FF4FF
:10355000C8731A46002178F06DFC07F5D873A3F5FF
:10356000D6731B681B68634A934240F0BE8007F520
:10357000D873A3F5D4714FF080724FF00003C1E906
:10358000002307F5D873A3F5D4734FF00072C3F886
:10359000182107F5D873A3F5D4730022C3F880204F
:1035A00007F5D873A3F5D4738522C3F8842007F1F7
:1035B0000803184610F0F2FB0346002B01D000F080
:1035C00087FB0220FFF702FF0220FFF7E9FE8020C1
:1035D000FFF7E6FE2020FFF7E3FE0120FFF7E0FE05
:1035E0004020FFF7DDFE49F61043C7F89C31022367
:1035F000C7F8A0310023C7F8A4310323C7F8A831C6
:103600000E23C7F8AC3107F5CE7319463A480AF0D5
:10361000FDFA1023C7F89C310223C7F8A03100231C
:10362000C7F8A4310323C7F8A8310E23C7F8AC317B
:1036300007F5CE73194631480AF0E8FA4FF44073A3
:10364000C7F89C310223C7F8A0310023C7F8A43182
:103650000323C7F8A8310E23C7F8AC3107F5CE73A2
:10366000194627480AF0D2FA48F62773C7F89C3162
:103670000223C7F8A0310023C7F8A4310323C7F8F9
:10368000A8310E23C7F8AC3107F5CE7319461D4893
:103690000AF0BCFA0123C7F89C310223C7F8A03115
:1036A0000023C7F8A4310323C7F8A8310A23C7F8B9
:1036B000AC3107F5CE73194613480AF0A7FA4FF458
:1036C0000853C7F89C310223C7F8A0310023C7F87C
:1036D000A4310323C7F8A8310E23C7F8AC3107F58E
:1036E000CE73194608480AF091FA00BF07F5D8775B
:1036F000BD4680BD0010005800040256001C025652
:1037000000140256000002560018025680B582B01E
:1037100000AF78607B681B68104A93421AD1022080
:10372000FFF76AFE49F610410D480AF021FC10210E
:103730000C480AF01DFC4FF440710B480AF018FCCD
:1037400048F6277109480AF013FC42F201210848A3
:103750000AF00EFC00BF0837BD4680BD00100058BF
:1037600000040256001C02560014025600000256C5
:103770000018025680B485B000AF7860074A7B68B5
:10378000C2F8583A054BD3F85832FB60FB6800BFCB
:103790001437BD465DF8047B704700BF00800256B9
:1037A00080B584B000AF444B5B6903F40033002B59
:1037B0001BD1BFF34F8F00BFBFF36F8F00BF3E4BD6
:1037C0000022C3F85022BFF34F8F00BFBFF36F8FAB
:1037D00000BF394B5B69384A43F400335361BFF390
:1037E0004F8F00BFBFF36F8F00E000BF324B5B69AC
:1037F00003F48033002B38D12F4B0022C3F88420F0
:10380000BFF34F8F00BF2C4BD3F88030FB60FB68B9
:103810005B0BC3F30E03BB60FB68DB08C3F3090358
:103820007B60BB685A0143F6E07313407A689207E5
:1038300021491343C1F860327B685A1E7A60002B1D
:10384000EFD1BB685A1EBA60002BE5D1BFF34F8F92
:1038500000BF194B5B69184A43F480335361BFF3CF
:103860004F8F00BFBFF36F8F00E000BF07F096F8E7
:1038700003F0BCF900F0BEFD1049114802F0DEF97A
:103880000F4802F032FAFFF7DBFAFFF779FBFFF798
:10389000B1FAFFF755FAFFF7C3FDFFF7EBFBFFF7B0
:1038A00023F900F079FC00F045FA00F00BF8FDF781
:1038B000A9FB00BFFDE700BF00ED00E048560B3458
:1038C0000C530B3480B582B000AF4FF40070FFF79B
:1038D00051FF3B4600221A605A6002233B600323DB
:1038E0007B603B461946092016F010FF3B461946FF
:1038F000082016F00BFF3B4619460A2016F006FF7B
:103900003B461946032016F001FF03210F2016F055
:1039100039FF0321CE4816F035FF0321CD4816F0BC
:1039200031FF0321CC4816F02DFF0321CB4816F0C0
:1039300029FFF321CA4808F0BDFB0346002B01D044
:1039400000F0C6F9202101200DF04EF9FF21C548F5
:1039500008F0B0FB0346002B01D000F0B9F940F2AB
:1039600001320121C0480AF073FC40F20132022109
:10397000BD480AF06DFC40F201320421BA480AF059
:1039800067FC40F201320821B7480AF061FC40F2BE
:1039900001322021B4480AF05BFC40F201324FF4BE
:1039A0008071B1480AF054FC40F201324FF40071CA
:1039B000AD480AF04DFC40F201324FF48061AA4854
:1039C0000AF046FC40F201324FF40061A6480AF0CA
:1039D0003FFC40F201328021A4480AF039FC40F259
:1039E00001324FF48071A1480AF032FC40F20132FA
:1039F0004FF400719D480AF02BFC40F201324FF465
:103A000080619A480AF024FC40F201324FF40061D0
:103A100096480AF01DFC40F201324FF48051934861
:103A20000AF016FC40F201324FF400418F480AF0D0
:103A30000FFC40F2013201218D480AF009FC40F2EE
:103A4000013208218A480AF003FC40F201321021B9
:103A500087480AF0FDFB40F20132202184480AF039
:103A6000F7FB40F20132402181480AF0F1FB40F2BD
:103A700001324FF400517E480AF0EAFB40F2013275
:103A800001217C480AF0E4FB40F20132022179482E
:103A90000AF0DEFB40F20132042176480AF0D8FB3E
:103AA00040F20132202173480AF0D2FB40F2013289
:103AB000802170480AF0CCFB40F2013201216E48AF
:103AC0000AF0C6FB40F2013210216B480AF0C0FB3D
:103AD00040F20132202168480AF0BAFB40F201327C
:103AE000402165480AF0B4FB40F201324FF4807186
:103AF00061480AF0ADFB40F201324FF480615E484C
:103B00000AF0A6FB40F201324FF400515A480AF085
:103B10009FFB40F201324FF4804157480AF098FB76
:103B200040F201324FF4807154480AF091FB40F2A8
:103B300001324FF4007151480AF08AFB40F2013221
:103B40004FF480514D480AF083FB40F201324FF4AC
:103B500000514A480AF07CFB40F2013201214848FA
:103B60000AF076FB40F201324FF4007144480AF04B
:103B70006FFB40F201324FF4806141480AF068FB6C
:103B800040F201324FF400613D480AF061FB40F21F
:103B900001324FF400513A480AF05AFB40F2013228
:103BA000102138480AF054FB40F201324FF4007102
:103BB00034480AF04DFB40F20132012132480AF04C
:103BC00047FB40F2013204212F480AF041FB40F24A
:103BD000013210212C480AF03BFB40F20132202137
:103BE00029480AF035FB40F20132012127480AF04A
:103BF0002FFB40F20132022124480AF029FB40F257
:103C00000132042121480AF023FB40F2013208214D
:103C10001E480AF01DFB40F2013210211B480AF039
:103C200017FB40F20132202118480AF011FB40F244
:103C30000132402115480AF00BFB40F2013280218D
:103C400012480AF005FB00BF0837BD4680BD00BF23
:103C5000160000101D000020050000300700003095
:103C600060510B34D0550B3400000256000402564C
:103C700000080256000C02560010025600140256AC
:103C800000180256001C025600380256003C02562C
:103C900080B582B000AF786039603968786806F026
:103CA00071F800BF0837BD4680BD000080B582B006
:103CB00000AF78607B681B68044A934201D106F02C
:103CC00081FE00BF0837BD4680BD00BF0014005014
:103CD00080B400AF72B600BF00BFFDE780B485B00E
:103CE00000AF7860074A7B68C2F85C3A054BD3F8AE
:103CF0005C32FB60FB6800BF1437BD465DF8047B97
:103D0000704700BF0080025680B485B000AF786075
:103D1000074A7B68C2F8603A054BD3F86032FB6013
:103D2000FB6800BF1437BD465DF8047B704700BFD9
:103D30000080025680B500AF0E4B0F4A1A600D4B43
:103D400000225A600B4B00229A600A4B4FF48042CB
:103D5000DA60084B4FF400321A61064B04225A61B4
:103D6000044816F061FD0346002B01D0FFF7B0FFB9
:103D700000BF80BD68540B340068025880B5ECB0B9
:103D800000AF07F5D873A3F5D673186007F5CE73A7
:103D900000221A605A609A60DA601A6107F5D873D7
:103DA000A3F5D47318464FF4C8731A46002178F06F
:103DB00041F807F5D873A3F5D6731B681B68374A1B
:103DC000934265D107F5D873A3F5D4714FF0004243
:103DD0004FF00003C1E9002307F5D873A3F5D473AE
:103DE0002F4AC3F8302107F1080318460FF0D6FF19
:103DF0000346002B01D0FFF76BFF8020FFF784FF05
:103E00000420FFF76BFF0820FFF768FF1020FFF783
:103E100065FF3923C7F89C310223C7F8A03100237E
:103E2000C7F8A4310323C7F8A8310B23C7F8AC3176
:103E300007F5CE7319461B4809F0E8FE0423C7F8BE
:103E40009C310223C7F8A0310023C7F8A431032313
:103E5000C7F8A8310B23C7F8AC3107F5CE73194664
:103E6000114809F0D3FE1023C7F89C310223C7F88C
:103E7000A0310023C7F8A4310323C7F8A8310B23CE
:103E8000C7F8AC3107F5CE731946084809F0BEFEF5
:103E900000BF07F5D877BD4680BD00BF0068025857
:103EA0001C04000300080256000C025600100256C3
:103EB000C0B26DED81CF80B482B000AF03463960EF
:103EC000FB713B68002B0DD0FB79002B02D0012B3E
:103ED00004D007E0094A3B68136003E0084A3B68E6
:103EE000136000BF00BF0837BD465DF8047B9FEC40
:103EF000100A9FE80F90FDEC81CF7447E4540B3417
:103F0000E8540B3480B500AF0CF03CFF01210120D8
:103F10000CF0E6FE0CF046FF002103200CF0E0FE62
:103F20000CF050FF002104200CF0DAFE00BF80BD31
:103F300080B485B000AF7860074A7B68C2F8643A05
:103F4000054BD3F86432FB60FB6800BF1437BD46F5
:103F50005DF8047B704700BF0080025680B594B0C6
:103F600000AF786000227968792006F027FE79207A
:103F700006F041FE2020FFF7DBFF12F0A7FFF864F8
:103F800007F1080318460EF00DF8FB6C124AA2FB6D
:103F900003239B0C013BBB64104B114A1A600F4B6F
:103FA00040F2E732DA600D4ABB6C53600B4B0022E3
:103FB0001A610A4B00229A60084817F047FE034630
:103FC000002B04D1054817F0A3FE034600E00123AF
:103FD00018465037BD4680BD83DE1B43EC540B347E
:103FE0000014005080B400AF00BFFDE780B400AF04
:103FF00000BFFDE780B400AF00BFFDE780B400AFB5
:1040000000BFFDE780B400AF00BFFDE780B400AFA4
:1040100000BFFDE780B400AF00BFBD465DF8047B84
:104020007047000080B500AF024806F010FF00BFE7
:1040300080BD00BFEC500B3480B500AF024807F0E4
:10404000D0FE00BF80BD00BF60510B3480B500AF13
:10405000024807F0C6FE00BF80BD00BFD0550B343C
:1040600080B500AF024817F00BFF00BF80BD00BF56
:10407000EC540B3480B500AF024818F055FC00BF7B
:1040800080BD00BF3C550B3480B586B000AF786072
:10409000144A154BD31A7B617B693B61134B1B6838
:1040A000002B02D1114B124A1A60104B1A687B6820
:1040B00013443A699A4207D277F02CFF03460C2248
:1040C0001A604FF0FF3309E0084B1B68FB60074B99
:1040D0001A687B681344054A1360FB681846183752
:1040E000BD4680BD000020340016000038550B345A
:1040F00098CE0C3480B584B000AFF8600B467A607F
:10410000FB72FB68002B16D07C220021F86877F048
:1041100091FEFB6802221A70FB6800225A70FB7A3B
:10412000002B01D0FA7A00E00122FB689A70FB684C
:104130007A689A6000E000BF1037BD4680BD00007D
:1041400080B485B000AF7860074A7B68C2F85C3AFB
:10415000054BD3F85C32FB60FB6800BF1437BD46EB
:104160005DF8047B704700BF0080025680B485B0C4
:1041700000AF7860074A7B68C2F86C3A054BD3F809
:104180006C32FB60FB6800BF1437BD465DF8047BF2
:10419000704700BF0080025680B500AF224B234A13
:1041A0001A60214B224A5A601F4B00229A601E4B14
:1041B0000022DA601C4B00221A611B4B0C225A6150
:1041C000194B00229A61184B0022DA61164B00222B
:1041D0001A62154B00225A62134B00229A6212484F
:1041E00018F020F90346002B01D0FFF771FD0021E4
:1041F0000D4819F053FC0346002B01D0FFF768FD72
:104200000021094819F088FC0346002B01D0FFF774
:104210005FFD054819F009FC0346002B01D0FFF7AC
:1042200057FD00BF80BD00BF3C550B34001000524D
:1042300080841E0080B5ECB000AF07F5D873A3F5FD
:10424000D673186007F5CE7300221A605A609A6020
:10425000DA601A6107F5D873A3F5D47318464FF4E2
:10426000C8731A46002177F0E5FD07F5D873A3F56A
:10427000D6731B681B68444A93427FD107F5D873F5
:10428000A3F5D4714FF000024FF48073C1E900230D
:1042900007F5D873A3F5D4733C4AC3F8502107F14E
:1042A000080318460FF07AFD0346002B01D0FFF7F4
:1042B0000FFD1020FFF75AFF2020FFF741FF4FF4BA
:1042C0004053C7F89C310223C7F8A0310023C7F838
:1042D000A4310023C7F8A8310423C7F8AC3107F58F
:1042E000CE7319462A4809F091FC2A4B2A4A1A60D3
:1042F000284B6C225A60274B00229A60254B4FF4C2
:104300008062DA60234B08221A61224B00225A6134
:10431000204B00229A611F4B0022DA611D4B0022C4
:104320001A621C4B01225A621A4B01229A62194BE3
:104330000022DA62174B00221A63164B00225A63DE
:10434000144807F00BF90346002B01D0FFF7C0FC1F
:1043500007F5D873A3F5D6731B680E4ADA670D4AC2
:1043600007F5D873A3F5D6731B68D3650022002127
:104370009F2006F023FC9F2006F03DFC00BF07F5C0
:10438000D877BD4680BD00BF001000523000010745
:1043900000140256D0550B345010025080B485B032
:1043A00000AF7860074A7B68C2F85C3A054BD3F8E7
:1043B0005C32FB60FB6800BF1437BD465DF8047BD0
:1043C000704700BF0080025680B485B000AF7860AF
:1043D000074A7B68C2F8603A054BD3F86032FB604D
:1043E000FB6800BF1437BD465DF8047B704700BF13
:1043F0000080025680B588B000AF07F11403002298
:104400001A605A609A603B1D00221A605A609A60D6
:10441000DA60324B324A1A60304B04225A602F4B1A
:1044200000229A602D4B4FF08062DA602B4B1822ED
:104430001A612A4B02225A61284B00229A61274BAB
:104440000022DA61254B4FF440321A62234B0022DE
:104450005A62224B00229A62204B0022DA621F4BE2
:1044600000221A631D4B00225A631C4B00229A63E0
:104470001A4B0022DA63194819F0F2FB0346002BAD
:1044800001D0FFF725FC10237B610023BB610123D2
:10449000FB6107F1140341F2883219460F4819F005
:1044A000B7FF0346002B01D0FFF712FC07237B6008
:1044B0000723BB600023FB6001233B613B1D41F2EE
:1044C00088321946054819F0DBFC0346002B01D061
:1044D000FFF7FEFB00BF2037BD4680BD48560B34BA
:1044E0000050025880B5ECB000AF07F5D873A3F5C3
:1044F000D673186007F5CE7300221A605A609A606E
:10450000DA601A6107F5D873A3F5D47318464FF42F
:10451000C8731A46002177F08DFC07F5D873A3F510
:10452000D6731B681B68344A93425FD107F5D87372
:10453000A3F5D4714FF000024FF48003C1E90023CA
:1045400007F5D873A3F5D4732C4AC3F8AC2007F54C
:10455000D873A3F5D47300221A6207F5D873A3F5B4
:10456000D47306225A6207F1080318460FF016FCAE
:104570000346002B01D0FFF7ABFB4FF40050FFF7D1
:1045800023FF2020FFF720FF4FF40040FFF706FF36
:104590004FF48040FFF702FFFF23C7F89C3102234E
:1045A000C7F8A0310023C7F8A4310323C7F8A83106
:1045B0000923C7F8AC3107F5CE731946104809F046
:1045C00025FB3523C7F89C310223C7F8A03100230F
:1045D000C7F8A4310323C7F8A8310923C7F8AC31C1
:1045E00007F5CE731946074809F010FB00BF07F521
:1045F000D877BD4680BD00BF0050025814000303A9
:10460000003C02560038025680B58EB008AF786084
:1046100000237B617B683B6107F10C0100234FF4B1
:104620008062386928F0E0F978617B69002B01D05D
:1046300002232FE0FB68B02206920122059200229D
:1046400004920A2203920A2202924FF4806201929B
:1046500000930023114A1249124828F00BFC78619C
:104660007B69002B01D00E2314E00F4B00221A703F
:104670000E4B07221A60342300220D490D4828F002
:10468000C7FA78617B69002B01D07B6902E022F0D8
:10469000B7FE7B6918461837BD4680BDB946003461
:1046A0000CD40734AC560B34187E0B342C430A342C
:1046B00020D407341C7E0B3480B588B004AF7860FA
:1046C0000023FB6042F2B84302934FF4007301935E
:1046D000084B00930023084A0849094825F0E6FBE7
:1046E000F860FB68002B01D000BFFDE700BF10376A
:1046F000BD4680BD60570B3421A0023430D407344E
:1047000060590B3480B400AF034B1B78DBB2184602
:10471000BD465DF8047B7047187E0B3480B582B0CF
:1047200000AF00233B6027E04FF0FF31164828F030
:104730000DFB78607B68002B01D07B6820E000F0E7
:1047400003FD7860114A7B6813607B68002B07D1FA
:104750000F4B01221A700C4828F052FB00230FE087
:104760000B4B00221A70084828F04AFB642027F0FF
:1047700023FB3B6801333B603B68022BD4D97B6849
:1047800018460837BD4680BD1C7E0B342C430A34C6
:10479000187E0B3490B5ADF2E44D02AF07F59B6483
:1047A000A4F2CC4420600846114607F59B62A2F2B1
:1047B000D442136007F59B63A3F2CE4302461A80EE
:1047C00007F59B63A3F59A630A461A8007F59B6376
:1047D000A3F26C4300221A6007F59B63A3F58E6376
:1047E00000221A60002387F8D33407F59B63A3F2F5
:1047F000CC431B68002B0DD007F59B63A3F2CE437F
:104800001B88002B06D007F59B63A3F59A631B88D2
:10481000002B01D118230EE107F59B63A3F2CE43D1
:104820001B88B3F5207F07D807F59B63A3F59A6330
:104830001B88B3F5F07F01D90D23FCE04FF0FF3169
:104840007F4828F083FAC7F8D404D7F8D434002B73
:1048500002D0D7F8D434EEE000F076FCC7F8D404E8
:10486000D7F8D434002B0AD107F1680307F16C02A2
:1048700007F17000202100F083FCC7F8D404D7F8BA
:10488000D434002B0DD107F59B63A3F58E631B6811
:10489000013307F158011022184600F041FEC7F815
:1048A000D404D7F8D434002B05D16649664825F0E6
:1048B00009F8C7F8D404D7F8D434002B19D107F17C
:1048C00058031946604825F0D3F807F1580207F558
:1048D0003C714FF4F073009301235B4825F024F9F9
:1048E000C7F8D404D7F8D434002B02D1012387F8B9
:1048F000D334D7F8D434002B07D107F53C7300210B
:10490000184625F0F9F9C7F8D404D7F8D434002BA9
:1049100007D107F53C730021184625F0BFF9C7F809
:10492000D404D7F8D434002B18D107F59B63A3F532
:104930009A631A8807F59B63A3F2CE43198807F19F
:104940001403184600F00EFE07F1140107F53C733E
:104950004222184625F0FEF9C7F8D404D7F8D4341B
:10496000002B17D107F59B63A3F2CE431B8807F5F5
:104970009B62A2F59A62128802FB03F35A0007F5C4
:104980009B63A3F2CC4307F53C70196825F0E2F96C
:10499000C7F8D404D7F8D434002B10D107F53C73F2
:1049A000184625F039F8C7F8D404D7F8D434002BCA
:1049B0000ED1254825F002FAC7F8D40408E097F88C
:1049C000D334002B04D007F53C73184625F024F8A7
:1049D0001E491D4824F076FFD7F8D434002B16D199
:1049E00007F59B63A3F2D4431B68002B0FD0D7F8C5
:1049F000E834002B0BD007F1580307F59B62A2F2B5
:104A0000D440134AD7F8E814006877F08DF8114ABB
:104A1000D7F8D4341360D7F8D434002B03D00E4B1E
:104A20001B78DBB200E001230B4A1370044828F026
:104A3000E7F9D7F8D434184607F2DC47BD4690BDF5
:104A40001C7E0B3440D4073460590B344CD40734EB
:104A500050D407342C430A34187E0B3490B5ADF58E
:104A6000297D00AF07F52874A4F52574206007F5AB
:104A70002870A0F52670016007F52871A1F527714F
:104A80000A6007F52872A2F52872136007F52873EB
:104A9000A3F5237300221A6007F52873A3F5247386
:104AA00000221A6007F52873A3F525731B68002BF5
:104AB0000DD007F52873A3F528731B68002B06D0CB
:104AC00007F52873A3F527731B680F2B01D818234C
:104AD00084E007F52873A3F526731B68202B05D9FE
:104AE00007F52873A3F5267320221A604FF0FF31D3
:104AF0003D4828F02BF9C7F89C02D7F89C32002BD0
:104B000002D0D7F89C3269E000F01EFBC7F89C0287
:104B1000D7F89C32002B0ED107F1100307F11402D5
:104B200007F52871A1F5267107F11800096800F052
:104B300027FBC7F89C02D7F89C32002B3ED10023FC
:104B4000C7F8983225E007F52873A3F52772D7F840
:104B50009832126802FB03F307F52872A2F525725A
:104B60001268D01807F11801D7F8982213469B0055
:104B700013449B000B44043307F52872A2F52771F8
:104B80001A4A096876F0D0FFD7F898320133C7F88F
:104B9000983207F52873A3F523731B68D7F898227A
:104BA0009A42D0D307F52873A3F523731A6807F543
:104BB0002873A3F528731B681A6006E007F52873AD
:104BC000A3F528731B6800221A60094AD7F89C32A3
:104BD0001360054828F014F9D7F89C32184607F5F9
:104BE0002977BD4690BD00BF1C7E0B3450D40734DE
:104BF0002C430A3490B5ADF5177D02AF07F5147458
:104C0000A4F51174206007F51470A0F5127001600E
:104C100007F51471A1F513710A6007F51472A2F576
:104C20001472136007F51473A3F5107300221A6051
:104C3000002387F8473207F51473A3F511731B6837
:104C4000002B11D007F51473A3F512731B68002B0A
:104C50000AD007F51473A3F514731B68002B03D057
:104C6000D7F86032002B01D1182348E14FF0FF3113
:104C7000A54828F06BF8C7F84C02D7F84C32002B47
:104C800002D0D7F84C323AE100F05EFAC7F84C0295
:104C9000D7F84C32002B05D19C499D4824F012FED8
:104CA000C7F84C02D7F84C32002B16D107F5147315
:104CB000A3F5117207F158014FF4F073009300232C
:104CC0001268934824F030FFC7F84C02D7F84C32F2
:104CD000002B02D1012387F84732D7F84C32002B42
:104CE00018D107F1100307F1140107F1580042220F
:104CF00024F09CFFC7F84C02D7F84C32002B09D1A6
:104D000007F51473A3F510731B68422B02D0902390
:104D1000C7F84C32D7F84C32002B10D107F514737A
:104D2000A3F50F731B78422B06D107F51473A3F577
:104D30000F735B784D2B02D00D23C7F84C32D7F898
:104D40004C32002B7BD107F114031233184600F0CC
:104D5000CBFC0346A7F84A3207F114031633184672
:104D600000F0FEFCC7F84002D7F84032002B05DA0D
:104D7000D7F840329BB25B429BB202E0D7F8403298
:104D80009BB2A7F8483207F114031A33184600F013
:104D9000ABFC0346012B32D107F114031C33184638
:104DA00000F0A2FC0346102B29D107F114031E3397
:104DB000184600F0B4FC0346032B20D107F114037E
:104DC0003633184600F0ABFC0346B3F5784F16D1E6
:104DD00007F114033A33184600F0A1FC0346B3F57B
:104DE000FC6F0CD107F114033E33184600F097FC1A
:104DF00003461F2B03D1D7F84032002B03DB0D23D2
:104E0000C7F84C321BE0B7F84A32B7F8482202FB29
:104E100003F3C7F83C3207F51473A3F51373D7F8FF
:104E20003C221B689A4207D8B7F84A32002B03D0BD
:104E3000B7F84832002B02D12123C7F84C32D7F8FB
:104E40004C32002B07D107F158034221184624F0B9
:104E500025FFC7F84C02D7F84C32002B28D1B7F801
:104E60004A32B7F8482202FB03F35A0007F1100355
:104E700007F51471A1F5127107F15800096824F0C3
:104E8000D5FEC7F84C02D7F84C32002B10D1B7F83A
:104E90004A32B7F8482202FB03F35A0007F51473AD
:104EA000A3F510731B689A4202D09023C7F84C32C6
:104EB000D7F84C32002B0CD107F51473A3F51473FB
:104EC0001B68B7F84A221A80D7F86032B7F8482230
:104ED0001A8097F84732002B04D007F15803184680
:104EE00024F09AFD0B490A4824F0ECFC0A4AD7F852
:104EF0004C321360044827F083FFD7F84C32184631
:104F000007F51577BD4690BD1C7E0B3440D40734A1
:104F100060590B344CD407342C430A3480B584B028
:104F200000AF78607B68002B01D118232FE04FF091
:104F3000FF31194827F00AFFF860FB68002B01D009
:104F4000FB6824E000F000F9F860FB68002B04D156
:104F50001249134824F0B6FCF860FB68002B04D11A
:104F600079680F4824F0B2FDF860FB68002B03D18C
:104F70000B4824F023FFF8600A49094824F0A2FCFA
:104F8000094AFB681360044827F03AFFFB6818469B
:104F90001037BD4680BD00BF1C7E0B3440D40734A3
:104FA00060590B344CD407342C430A3480B582B09A
:104FB00000AF7860786800F0DFFB034618460837DA
:104FC000BD4680BD80B586B004AF42F2B8430293BF
:104FD0004FF400730193244B00930023234A244988
:104FE000244824F063FF78607B68002B1BD000F01E
:104FF00047F878607B68002B01D07B682FE042F295
:10500000B84302934FF400730193174B00930023AE
:10501000164A1749174824F049FF78607B68002B2F
:1050200001D07B681BE01449124824F04BFC7860E7
:105030007B68002B01D07B6811E010490D4824F0FB
:1050400013FC78607B680B2B01D100237B607B68AD
:10505000002B03D1074824F0B1FE78607B68184626
:105060000837BD4680BD00BF60570B3421A0023415
:1050700030D4073460590B344CD4073454D407343B
:1050800080B598B00AAF3B1D19462A4816F0B6F80D
:105090000346002B01D0902347E0FB693B633B6A4A
:1050A000FB623B6B002B02D0FB6A002B01D19023EB
:1050B0003BE03B6BB3F5803F02D201237B6316E0FC
:1050C0003B6BB3F5003F02D202237B630FE03B6BE7
:1050D000B3F5802F02D204237B6308E03B6BB3F56A
:1050E000000F02D208237B6301E010237B630123BE
:1050F0000993012308937B6B0793FB6A06933B6B31
:105100000593002304934FF4007303930123029348
:10511000094B01934FF400730093084B0022084998
:10512000084824F077FEB862BB6A18463837BD4697
:1051300080BD00BF68540B3454D4073460570B341F
:1051400021A0023460590B3480B582B000AF002337
:105150007B600A4B1B78DBB2002B0AD1FFF732FFD2
:1051600078607B68002B01D1012200E00022034B14
:105170001A707B6818460837BD4680BD187E0B3410
:1051800080B5A6B006AFF860B9607A603B600023D6
:105190003B670023FB660023BB6600237B6600237E
:1051A0003B660023FB650023BB6500237B65002372
:1051B0003B610023BB67FB68002B05D07B68002B9D
:1051C00002D03B68002B01D1182383E07B680022CA
:1051D0001A603B6800221A604049414824F072FB83
:1051E000F867FB6F002B01D0FB6F73E007F16C00D9
:1051F00007F1700207F1140107F15403059307F159
:105200005803049307F15C03039307F160030293CF
:1052100007F16403019307F16803009303463048E4
:1052200024F07EFBF86742E03B6F03F01003002B95
:1052300020D107F11403184600F01FF90346002B94
:1052400018D007F11403184600F0EEF878677B6F6A
:10525000002B0FD07A6FBB6F9A4201D97B6FBB676F
:1052600007F1100107F1140300937B6FBA68F86827
:1052700000F03AF807F16C0007F1700207F1140131
:1052800007F15403059307F15803049307F15C03F6
:10529000039307F16003029307F16403019307F19D
:1052A0006803009303460E4824F078FBF867FB6F11
:1052B000002BB9D00B490A4824F004FBFB6F0F2BDD
:1052C00001D10023FB673A697B681A603B68BA6FBB
:1052D0001A60FB6F18468037BD4680BD40D4073446
:1052E00060590B344CD40734B0B588B000AFF860C7
:1052F000B9607A603B60FB68002B00F08D80BB6872
:10530000002B00F089803B6B002B00F085807B68D0
:10531000002B00F08180BB681B687B617B69FB61AF
:1053200002E0FB69013BFB61FB69002B0BD0FA69D2
:1053300013469B0013449B00143BFA6813441B68FC
:105340003A689A42EDD37A697B689A4223D27B69A4
:10535000BB6118E0BA6913469B0013449B00143BE1
:10536000FA68D118BA6913469B0013449B001A4689
:10537000FB6813441C460D460FCD0FC42B682360F9
:10538000BB69013BBB61BA69FB699A42E2D87B69A0
:1053900001337B6124E0FA697B689A423ED27B68E4
:1053A000013BBB6118E0BA6913469B0013449B00A4
:1053B000143BFA68D118BA6913469B0013449B004A
:1053C0001A46FB6813441C460D460FCD0FC42B68CC
:1053D0002360BB69013BBB61BA69FB699A42E2D8B1
:1053E000FA6913469B0013449B001A46FB6813445A
:1053F0003A681A60FA6913469B0013449B001A46E8
:10540000FB681344181D3B6B064A102176F08CFB99
:10541000BB687A691A6002E000BF00E000BF203775
:10542000BD46B0BD50D4073480B584B000AF7860BD
:105430000023FB60786800F020F80346002B01D1C0
:10544000002316E00323BB600FE0FA6813469B00BD
:1054500013445B0019467A68BB6813441B780B44FD
:10546000303BFB60BB680133BB60BB68072BECD9EA
:10547000FB6818461037BD4680BD80B485B000AFCC
:1054800078607B68002B01D1002342E07B681B78A9
:10549000542B09D17B6801331B78482B04D17B68DE
:1054A00002331B784D2B01D0002332E00323FB6035
:1054B00010E07A68FB6813441B782F2B05D97A68B3
:1054C000FB6813441B78392B01D9002321E0FB68CA
:1054D0000133FB60FB68072BEBD97B6808331B7833
:1054E0002E2B13D17B6809331B78422B0ED17B689E
:1054F0000A331B784D2B09D17B680B331B78502B5B
:1055000004D17B680C331B78002B01D0002300E012
:10551000012318461437BD465DF8047B7047000030
:1055200080B584B000AFF860B9607A60BB68002BCA
:1055300006D07B680F2B03D9FB68084A934201D938
:10554000182306E0FB68064A7968B86876F0ECFA3A
:10555000002318461037BD4680BD00BF9F8601005E
:105560005CD4073480B586B000AF78600B467B8092
:1055700013463B807B68002B72D07B883A8802FB05
:1055800003F35B007B617B6942333B613B885B4299
:10559000FB6042220021786876F04CFC7B68422256
:1055A0001A707B6801334D221A707B6802333969A7
:1055B000184600F074F87B680A334221184600F060
:1055C0006EF87B680E332821184600F068F87B6877
:1055D00012337A881146184600F061F87B6816335A
:1055E000FA681146184600F05AF87B681A33012110
:1055F000184600F039F87B681C331021184600F07B
:1056000033F87B681E330321184600F048F87B68A6
:1056100022337969184600F042F87B68263340F659
:105620001331184600F03BF87B682A3340F61331FB
:10563000184600F034F87B6836334FF4784118464A
:1056400000F02DF87B683A334FF4FC61184600F007
:1056500026F87B683E331F21184600F020F800E052
:1056600000BF1837BD4680BD80B483B000AF7860FE
:105670000B467B807B68002B0BD07B88DAB27B6883
:105680001A707B881B0A9AB27B680133D2B21A70F7
:1056900000E000BF0C37BD465DF8047B704780B466
:1056A00083B000AF786039607B68002B16D03B6810
:1056B000DAB27B681A703B681A0A7B680133D2B28F
:1056C0001A703B681A0C7B680233D2B21A703B68BE
:1056D0001A0E7B680333D2B21A7000E000BF0C3799
:1056E000BD465DF8047B704780B483B000AF78603E
:1056F0007B68002B01D100230BE07B681B781AB27A
:105700007B6801331B781BB21B021BB213431BB215
:105710009BB218460C37BD465DF8047B704780B4D9
:1057200083B000AF78607B68002B01D1002311E0CB
:105730007B681B781A467B6801331B781B021A436F
:105740007B6802331B781B041A437B6803331B7886
:105750001B06134318460C37BD465DF8047B7047A3
:1057600080B582B000AF78607868FFF7D8FF034655
:1057700018460837BD4680BD80B483B000AF78605E
:105780007B68212B4AD87B68212B59D801A252F87B
:1057900023F000BF255800344158003431580034FC
:1057A00041580034415800344158003441580034C5
:1057B00029580034415800344158003441580034CD
:1057C00041580034415800344158003441580034A5
:1057D00035580034415800344158003441580034A1
:1057E0004158003441580034415800344158003485
:1057F000415800343958003441580034415800347D
:105800004158003441580034415800344158003464
:1058100041580034415800343D5800347B68902B87
:1058200004D00DE00A4B0CE00A4B0AE00A4B08E0FA
:105830000A4B06E00A4B04E00A4B02E00A4B00E088
:105840000A4B18460C37BD465DF8047B704700BF15
:105850006CD4073470D407347CD4073488D407342C
:1058600094D407349CD40734A4D40734ACD407347C
:1058700080B584B000AF78600023FB60064815F067
:105880000BFE0346042B01D00123FB60FB68184686
:105890001037BD4680BD00BF68540B3480B586B05C
:1058A00000AFF860B9607A603B6000237B613B68C1
:1058B0007A68B968064815F0EFF80346002B01D066
:1058C00001237B617B6918461837BD4680BD00BF48
:1058D00068540B3480B586B000AFF860B9607A6068
:1058E0003B6000237B613B687A68B968064815F025
:1058F0007BF90346002B01D001237B617B691846AD
:105900001837BD4680BD00BF68540B340F4880F384
:105910000A880F48854604F04BFE0E480E490F4A90
:10592000002302E0D458C4500433C4188C42F9D385
:105930000B4A0C4C002301E013600432A242FBD35B
:1059400076F0EEFAFDF72CFFFEE7000000EA1F34C8
:105950000000203428430A344C450A3428430A34D2
:10596000C0450A3498CE0C34FEE780B58AB004AF47
:10597000F8600B467A60FB72FB681868FB689B88CE
:105980005B0099B2FB7A9AB2FB689B680293022390
:10599000019307F114030093012308F07FFE0346EF
:1059A000FB75FB7D002B03D0FDF76EFCFB7D0BE050
:1059B0007B7D1BB21B021AB23B7D1BB213431BB291
:1059C0009AB27B681A80002318461837BD4680BDFE
:1059D00080B586B000AFF860B9603B601346FB80CD
:1059E000FB68002B02D0BB68002B01D1012327E00C
:1059F000FB68BA681A60FB68FA889A80FB683A68A4
:105A00009A6007F116031A460421F868FFF7ADFF04
:105A10000346002B01D0012312E0FB684FF0000287
:105A2000DA60FB684FF000021A61FB684FF0000279
:105A30005A61FB6800221A76FB6802225A7600231C
:105A400018461837BD4680BD80B586B000AF786077
:105A50007B68002B01D1012384E007F114031A466F
:105A600004217868FFF781FF0346FB75FB7D002B5F
:105A700001D0FB7D76E0BB8A07EE903AB8EE677AFC
:105A8000DFED3A6AC7EE267A7B68C3ED037A07F149
:105A900012031A4602217868FFF767FF0346FB7579
:105AA000FB7D002B01D0FB7D5CE07B8A07EE903A0A
:105AB000B8EE677AF2EE046AC7EE267A9FED2C7A8A
:105AC00077EEC77A7B68C3ED047A07F110031A46B4
:105AD00010217868FFF749FF0346FB75FB7D002B1B
:105AE00001D0FB7D3EE03B8A1BB207EE903AB8EE58
:105AF000E77ADFED1E6AC7EE267A7B68C3ED057A8A
:105B000007F10E031A461C217868FFF72EFF0346A3
:105B1000FB75FB7D002B01D0FB7D23E0FB89DAB216
:105B20007B681A767B68D3ED057A9FED127AF4EEE6
:105B3000C77AF1EE10FA03DD7B6800225A7610E096
:105B40007B68D3ED057A9FED0C7AF4EEC77AF1EE1F
:105B500010FA03D57B6801225A7602E07B680222A4
:105B60005A76002318461837BD4680BD00007A4497
:105B7000339388430AD7233C0AD723BC80B400AFB1
:105B800000BFBD465DF8047B7047000080B586B05D
:105B900004AF03463960FB711346BB80FB799AB2B0
:105BA0004FF47A730293BB8801933B6800930123FF
:105BB000A021034808F072FD00BF0837BD4680BD34
:105BC00010520B3480B588B004AF03463960FB71C6
:105BD0001346BB800023FB8124E000BF4FF47A739F
:105BE0000122A021144808F073FE0346002BF5D1D2
:105BF000FB799AB2FB89134499B2FB893A68134442
:105C00004FF47A72029201220192009301230A4614
:105C1000A021094808F02EFC0346002B07D1FB8980
:105C20000133FB81FA89BB889A42D6D300E000BFDA
:105C300000BF1037BD4680BD10520B3480B584B014
:105C400000AF786039607B683A681A607B684FF013
:105C500080725A607B6800229A607B684FF44052E1
:105C6000DA607B6802221A617B684FF000525A6149
:105C70007B684FF080629A6107F10C0319467868DF
:105C800000F0E0F8BB8903F00F03062B23D107F1E6
:105C90000C0302331946786800F0EEF8FB8903F034
:105CA0000F03012B19D1BB891B1203F00F035A1CE0
:105CB000BB891B1103F01F0301331344013301227D
:105CC0009A407B68DA61786800F0F0F80346002BB0
:105CD00005D1002305E000BF02E000BF00E000BFE7
:105CE000012318461037BD4680BDB0B58CB000AF5B
:105CF00078607B6807F118041D1D0FCD0FC495E86F
:105D0000030084E8030007F1080300221A605A60C8
:105D10009A60DA600023BB617B681B6807F1180199
:105D200041F28832184618F0EDF80346002B10D1E6
:105D30000823BB603423FB607B681B6807F1080203
:105D40001146184618F062FA0346002B03D10023CF
:105D500003E000BF00E000BF012318463037BD4616
:105D6000B0BDB0B58AB000AFF860B9607A60FB68CA
:105D700007F110041D1D0FCD0FC495E8030084E842
:105D80000300BB687B61FB681B6807F1100141F2EF
:105D90008832184618F0B6F80346002B0CD1FB6881
:105DA0001B6841F288327968184618F08CF903466E
:105DB000002B03D1002308E000BF00E000BFFB6818
:105DC0001B68184618F08EFA012318462837BD467E
:105DD000B0BDB0B58AB000AFF860B9601346FB80C3
:105DE000FB6807F110041D1D0FCD0FC495E80300DB
:105DF00084E80300BB687B61FB681B6807F1100146
:105E000041F28832184618F07DF80346002B0CD179
:105E1000FB681B68B91D41F28832184618F0E0F89B
:105E20000346002B03D1002308E000BF00E000BFC1
:105E3000FB681B68184618F055FA012318462837E6
:105E4000BD46B0BD80B582B000AF786039603A68B9
:105E500000217868FFF785FF0346002B01D100235E
:105E600006E000BF7B681B68184618F03BFA012368
:105E700018460837BD4680BD80B582B000AF786057
:105E800039603A6802217868FFF76BFF0346002B00
:105E900001D1002306E000BF7B681B68184618F09C
:105EA00021FA012318460837BD4680BD80B584B06D
:105EB00000AF786007F10E031A4641F202017868DC
:105EC000FFF74FFF0346002B10D1FB8923F040035F
:105ED0009BB2FB81FB891A4641F202017868FFF709
